:020000040000FA
:1000000026200030A0000030A1000030A200200017
:1000100003012107220744208C0003012107013E30
:10002000A1002119A10120000B100C309500030143
:10003000200750208E0003012007013EA000A019D8
:10004000A001072820000B1D2228080020008C0199
:1000500022008C0123008C01210000308C00200044
:100060008E0100308E00210000308E0021009501AD
:1000700007309500200095010C30950021003330A9
:10008000990020008B01080082073F3406345B345E
:10009000473466346D347D3407347F3467348034BC
:0A00A0008200FE34FD34FB34F73417
:0400AA0000340034EA
:020000040001F9
:02000E00C73FEA
:02001000FF3FB0
:00000001FF
