:08000000803102288731EC2F4A
:100A620023009301910192010800F0000130F0028D
:100A720003190800372DFE0012001E00FE0B3D2D4B
:100A82000034210099151916991619178E110E1294
:100A9200080021000E1220000E118E150E150E11E7
:100AA20021000E16080021000E1220008E110430C3
:100AB2008531362520000E150E1121008C140800F8
:100AC200FF3021008D0023008D01FF3024008D00B6
:100AD200210015087F399500080059344334213428
:100AE2001134033403340934003407340034053438
:100AF2000034013400340230F0000030F100FF30E5
:100B0200F007FF30F13D700A031D802D710A0319B1
:100B12000800802D21000E1220008E110E110430CB
:100B220085313625853120008E150E15043085312C
:100B32003625080020002108C9002008C800230823
:100B4200C1002208C0002508BD002408BC002708F7
:100B5200BF002608BE00080021000E1220008E15DC
:100B62000E15043085313625853120008E11043072
:100B72008531362520000E1121000E1600000000DE
:100B8200080020008C0122008C0123008C0121002E
:100B92008C0120008E0121008E0122008E0107307F
:100BA2002100950022309900A0308B000800F3004C
:100BB200640023009518D92D7308F000F101700824
:100BC2009100710892003F30F200720895051514E9
:100BD2000310151803140030093D130808007008AB
:100BE200710403190800F201F30101307302C530E8
:100BF200031972020318082E0130F2070030F33D88
:100C020001307302C53003197202031CFD2D01303D
:100C1200F0020030F13BF02DF20121000E1620000F
:100C22008E15F301083073020318352E00002000E0
:100C32000E11043085313625863120000E15000054
:100C420000000310F20D003020008E190130F10077
:100C52007108F204000000000130F1007108F3078E
:100C620008307302031C172E21000E1272080800AE
:100C7200FA008531AD2586317A08013E86317C261F
:100C82008631F8007808FB00FC0177087C02031823
:100C9200752E7B08031D702E86310D268631F800D5
:100CA2007C087607F90079088600870178088100B8
:100CB2007708FF3EF800FF3003180030F90079088A
:100CC200803A803C031D672E78087C0203186D2E43
:100CD200853154258631702E85314A258631013081
:100CE200F8007808FC07462E85318B2586310130C5
:100CF200853136250800F20020000E1121000E1267
:100D0200F401083074020318A72EF21F8B2E200064
:100D12008E158D2E20008E110430853136258631B8
:100D220020000E150310F20D043085313625863170
:100D320020000E1102308531362586310130F10056
:100D42007108F40708307402031C862E20000E116D
:100D520021000E16023085313625863120000E150F
:100D62000230853136258631000000000000200067
:100D72008E1DBE2EF301F30ABF2EF3010E112100C8
:100D82000E127308080020003D0885003C0884000C
:100D92008435850D003084078830853D00088C003D
:100DA200FB308E0085317C25863120004908850084
:100DB200480884008435850D003084078830853DDD
:100DC20000088C00FD308E0085317C2586312000A4
:100DD20041088500400884008435850D0030840771
:100DE2008830853D00088C00FE308E0085317C25E0
:100DF200863120003F0885003E0884008435850D39
:100E0200003084078830853D00088C00F7308E0062
:100E120085317C250800F601F11F162FF009F10932
:100E2200F00A0319F10AF601F60AF31F212FF2095B
:100E3200F309F20A0319F30A0130F4007408F60602
:100E4200F701F801700871040319502FF501F50A32
:100E5200F11B352F0130F035F10D890B2C2F0130AC
:100E6200F4007408F507292F0130F735F80D890BC6
:100E7200362F71087302031D402F70087202031C83
:100E8200472F7008F2027108F33B77140130F136F4
:100E9200F00C890B482F0130F502031D352F76081F
:100EA2000319582FF709F809F70A0319F80A7808FD
:100EB200F1007708F00008008531C22587318531BD
:100EC2006125873185313125873148308531D825F3
:100ED20087312000AC00AD012C08C8002D08C900E4
:100EE2008531422587310530F0000030F10085312F
:100EF200F0258731F50146302000AC002C08F600C1
:100F02000330AD002D08F700903086313926873145
:100F12001030F0000030F10020003408AC00AD01C8
:100F22002C08F2002D08F30087310C278731710855
:100F32008500700884008435850D00308407883070
:100F4200853D003F2000A000013FA10034080F3979
:100F5200AE00AF01AE35AF0D00302E0784008830F1
:100F62002F3D8500003FA200013FA3001030F0009A
:100F72000030F1004608B000B1013008F20031083B
:100F8200F30087310C2787317108850070088400CF
:100F92008435850D003084078830853D003F200070
:100FA200A400013FA50046080F39B200B301B235D3
:100FB200B30D0030320784008830333D8500003F96
:100FC200A600013FA70085319B2587318631C426C3
:100FD20087310130752F6E308400853085003430C2
:100FE2008600003087000E3085313C25C201C301E6
:100FF200C401C501C601C701200087315D2F3F34FE
:101002000034063400345B3400344F340034663428
:1010120000346D3400347D340034073400347F34BE
:0A10220000346734003480340034D9
:020000040001F9
:04000E00C7F9FFDF50
:00000001FF
