:08000000803102288731EE2F48
:100D6E00FE0012001E00FE0BB82E003404340034B8
:100D7E000534003408340034023400348631F02651
:100D8E0086318631E12686318731012786318731DA
:100D9E004A278631CB2E0530F8000030F900FF309F
:100DAE00F807FF30F93D780A031DD62E790A03198C
:100DBE000800D62EFF3021008D0023008D01FF305C
:100DCE0024008D00210015087F399500F201F301F2
:100DDE00080020008C0121008C0123008C012000D2
:100DEE008E0121008E010730950022309900A0302F
:100DFE008B000800FD3020008E008631D226873110
:100E0E0073088500720884008435850D00308407D0
:100E1E008830853D000820008C00FE308E00863123
:100E2E00D226873177088500760884008435850DB3
:100E3E00003084078830853D000820008C00FB3090
:100E4E008E008631D22687317108850070088400A5
:100E5E008435850D003084078830853D00082000DC
:100E6E008C00F7308E008631D22675088500740806
:100E7E0084008435850D003084078830853D000858
:100E8E0020008C00080021000D08FE398D00200086
:100E9E008D185D2F0630F2000030F3000130A200F5
:100EAE000030A3000130A0000030A1000D196B2FFF
:100EBE000430F2000030F3000130A2000030A30035
:100ECE000230A0000030A1008D19792F0230F200FF
:100EDE000030F3000130A2000030A3000330A00068
:100EEE000030A10021000D08013A8D000D08FD39DA
:100EFE008D0020000D198F2F0330F2000030F3000B
:100F0E000130A2000030A3000230A0000030A1008A
:100F1E008D199D2F0130F2000030F3000130A20038
:100F2E000030A3000330A0000030A10021000D0806
:100F3E00023A8D000D08FB398D0020008D19B32F5C
:100F4E000530F2000030F3000130A2000030A300A3
:100F5E000330A0000030A100FF3021008D002000E2
:100F6E000D18C32F0A30F2000030F3000130A2003A
:100F7E000030A300A001A1018D18D12F0930F2007D
:100F8E000030F3000130A2000030A3000130A000B9
:100F9E000030A1000D19DF2F0830F2000030F300F1
:100FAE000130A2000030A3000230A0000030A100EA
:100FBE008D1908000730F2000030F3000130A20056
:100FCE000030A3000330A0000030A1000800BD30A7
:100FDE00840086308500703086000030870008302F
:100FEE008631B726A001A101A201A30120008631FE
:100FFE00C52E3F340034063400345B3400344F3495
:10100E000034663400346D3400347D3400340734DB
:0E101E0000347F3400346734003480340034F2
:020000040001F9
:04000E00C7FFFFFF2A
:00000001FF
